{
    "_format": "hh-sol-artifact-1",
    "contractName": "spotify",
    "sourceName": "contracts/Spotify.sol",
    "abi": [
        {
            "inputs": [],
            "stateMutability": "nonpayable",
            "type": "constructor"
        },
        {
            "inputs": [
                {
                    "internalType": "string",
                    "name": "songname",
                    "type": "string"
                },
                {
                    "internalType": "string",
                    "name": "murl",
                    "type": "string"
                },
                {
                    "internalType": "string",
                    "name": "image",
                    "type": "string"
                },
                {
                    "internalType": "string",
                    "name": "singer",
                    "type": "string"
                }
            ],
            "name": "add",
            "outputs": [],
            "stateMutability": "payable",
            "type": "function"
        },
        {
            "inputs": [
                {
                    "internalType": "string",
                    "name": "name",
                    "type": "string"
                }
            ],
            "name": "deletesong",
            "outputs": [],
            "stateMutability": "nonpayable",
            "type": "function"
        },
        {
            "inputs": [],
            "name": "get",
            "outputs": [
                {
                    "components": [
                        {
                            "internalType": "string",
                            "name": "songname",
                            "type": "string"
                        },
                        {
                            "internalType": "string",
                            "name": "murl",
                            "type": "string"
                        },
                        {
                            "internalType": "string",
                            "name": "image",
                            "type": "string"
                        },
                        {
                            "internalType": "string",
                            "name": "singer",
                            "type": "string"
                        }
                    ],
                    "internalType": "struct spotify.Music[]",
                    "name": "",
                    "type": "tuple[]"
                }
            ],
            "stateMutability": "view",
            "type": "function"
        },
        {
            "inputs": [],
            "name": "owner",
            "outputs": [
                {
                    "internalType": "address payable",
                    "name": "",
                    "type": "address"
                }
            ],
            "stateMutability": "view",
            "type": "function"
        }
    ],
    "bytecode": "0x608060405234801561001057600080fd5b5033600160006101000a81548173ffffffffffffffffffffffffffffffffffffffff021916908373ffffffffffffffffffffffffffffffffffffffff160217905550610feb806100616000396000f3fe60806040526004361061003f5760003560e01c8063221874e0146100445780636d4ce63c1461006d578063878fc108146100985780638da5cb5b146100b4575b600080fd5b34801561005057600080fd5b5061006b60048036038101906100669190610799565b6100df565b005b34801561007957600080fd5b506100826101bd565b60405161008f919061099b565b60405180910390f35b6100b260048036038101906100ad91906109bd565b610464565b005b3480156100c057600080fd5b506100c96105bc565b6040516100d69190610ad5565b60405180910390f35b60005b6000805490508110156101b957600080828154811061010457610103610af0565b5b9060005260206000209060040201600001905082805190602001208160405161012d9190610c22565b6040518091039020036101a5576000828154811061014e5761014d610af0565b5b90600052602060002090600402016000808201600061016d91906105e2565b60018201600061017d91906105e2565b60028201600061018d91906105e2565b60038201600061019d91906105e2565b5050506101b9565b5080806101b190610c72565b9150506100e2565b5050565b60606000805480602002602001604051908101604052809291908181526020016000905b8282101561045b578382906000526020600020906004020160405180608001604052908160008201805461021490610b4e565b80601f016020809104026020016040519081016040528092919081815260200182805461024090610b4e565b801561028d5780601f106102625761010080835404028352916020019161028d565b820191906000526020600020905b81548152906001019060200180831161027057829003601f168201915b505050505081526020016001820180546102a690610b4e565b80601f01602080910402602001604051908101604052809291908181526020018280546102d290610b4e565b801561031f5780601f106102f45761010080835404028352916020019161031f565b820191906000526020600020905b81548152906001019060200180831161030257829003601f168201915b5050505050815260200160028201805461033890610b4e565b80601f016020809104026020016040519081016040528092919081815260200182805461036490610b4e565b80156103b15780601f10610386576101008083540402835291602001916103b1565b820191906000526020600020905b81548152906001019060200180831161039457829003601f168201915b505050505081526020016003820180546103ca90610b4e565b80601f01602080910402602001604051908101604052809291908181526020018280546103f690610b4e565b80156104435780601f1061041857610100808354040283529160200191610443565b820191906000526020600020905b81548152906001019060200180831161042657829003601f168201915b505050505081525050815260200190600101906101e1565b50505050905090565b600034116104a7576040517f08c379a000000000000000000000000000000000000000000000000000000000815260040161049e90610d17565b60405180910390fd5b600160009054906101000a900473ffffffffffffffffffffffffffffffffffffffff1673ffffffffffffffffffffffffffffffffffffffff166108fc349081150290604051600060405180830381858888f1935050505015801561050f573d6000803e3d6000fd5b506000604051806080016040528086815260200185815260200184815260200183815250908060018154018082558091505060019003906000526020600020906004020160009091909190915060008201518160000190816105719190610ee3565b5060208201518160010190816105879190610ee3565b50604082015181600201908161059d9190610ee3565b5060608201518160030190816105b39190610ee3565b50505050505050565b600160009054906101000a900473ffffffffffffffffffffffffffffffffffffffff1681565b5080546105ee90610b4e565b6000825580601f10610600575061061f565b601f01602090049060005260206000209081019061061e9190610622565b5b50565b5b8082111561063b576000816000905550600101610623565b5090565b6000604051905090565b600080fd5b600080fd5b600080fd5b600080fd5b6000601f19601f8301169050919050565b7f4e487b7100000000000000000000000000000000000000000000000000000000600052604160045260246000fd5b6106a68261065d565b810181811067ffffffffffffffff821117156106c5576106c461066e565b5b80604052505050565b60006106d861063f565b90506106e4828261069d565b919050565b600067ffffffffffffffff8211156107045761070361066e565b5b61070d8261065d565b9050602081019050919050565b82818337600083830152505050565b600061073c610737846106e9565b6106ce565b90508281526020810184848401111561075857610757610658565b5b61076384828561071a565b509392505050565b600082601f8301126107805761077f610653565b5b8135610790848260208601610729565b91505092915050565b6000602082840312156107af576107ae610649565b5b600082013567ffffffffffffffff8111156107cd576107cc61064e565b5b6107d98482850161076b565b91505092915050565b600081519050919050565b600082825260208201905092915050565b6000819050602082019050919050565b600081519050919050565b600082825260208201905092915050565b60005b8381101561084857808201518184015260208101905061082d565b60008484015250505050565b600061085f8261080e565b6108698185610819565b935061087981856020860161082a565b6108828161065d565b840191505092915050565b600060808301600083015184820360008601526108aa8282610854565b915050602083015184820360208601526108c48282610854565b915050604083015184820360408601526108de8282610854565b915050606083015184820360608601526108f88282610854565b9150508091505092915050565b6000610911838361088d565b905092915050565b6000602082019050919050565b6000610931826107e2565b61093b81856107ed565b93508360208202850161094d856107fe565b8060005b85811015610989578484038952815161096a8582610905565b945061097583610919565b925060208a01995050600181019050610951565b50829750879550505050505092915050565b600060208201905081810360008301526109b58184610926565b905092915050565b600080600080608085870312156109d7576109d6610649565b5b600085013567ffffffffffffffff8111156109f5576109f461064e565b5b610a018782880161076b565b945050602085013567ffffffffffffffff811115610a2257610a2161064e565b5b610a2e8782880161076b565b935050604085013567ffffffffffffffff811115610a4f57610a4e61064e565b5b610a5b8782880161076b565b925050606085013567ffffffffffffffff811115610a7c57610a7b61064e565b5b610a888782880161076b565b91505092959194509250565b600073ffffffffffffffffffffffffffffffffffffffff82169050919050565b6000610abf82610a94565b9050919050565b610acf81610ab4565b82525050565b6000602082019050610aea6000830184610ac6565b92915050565b7f4e487b7100000000000000000000000000000000000000000000000000000000600052603260045260246000fd5b7f4e487b7100000000000000000000000000000000000000000000000000000000600052602260045260246000fd5b60006002820490506001821680610b6657607f821691505b602082108103610b7957610b78610b1f565b5b50919050565b600081905092915050565b60008190508160005260206000209050919050565b60008154610bac81610b4e565b610bb68186610b7f565b94506001821660008114610bd15760018114610be657610c19565b60ff1983168652811515820286019350610c19565b610bef85610b8a565b60005b83811015610c1157815481890152600182019150602081019050610bf2565b838801955050505b50505092915050565b6000610c2e8284610b9f565b915081905092915050565b7f4e487b7100000000000000000000000000000000000000000000000000000000600052601160045260246000fd5b6000819050919050565b6000610c7d82610c68565b91507fffffffffffffffffffffffffffffffffffffffffffffffffffffffffffffffff8203610caf57610cae610c39565b5b600182019050919050565b600082825260208201905092915050565b7f706c6561736520706179203e2030206574680000000000000000000000000000600082015250565b6000610d01601283610cba565b9150610d0c82610ccb565b602082019050919050565b60006020820190508181036000830152610d3081610cf4565b9050919050565b60008190508160005260206000209050919050565b60006020601f8301049050919050565b600082821b905092915050565b600060088302610d997fffffffffffffffffffffffffffffffffffffffffffffffffffffffffffffffff82610d5c565b610da38683610d5c565b95508019841693508086168417925050509392505050565b6000819050919050565b6000610de0610ddb610dd684610c68565b610dbb565b610c68565b9050919050565b6000819050919050565b610dfa83610dc5565b610e0e610e0682610de7565b848454610d69565b825550505050565b600090565b610e23610e16565b610e2e818484610df1565b505050565b5b81811015610e5257610e47600082610e1b565b600181019050610e34565b5050565b601f821115610e9757610e6881610d37565b610e7184610d4c565b81016020851015610e80578190505b610e94610e8c85610d4c565b830182610e33565b50505b505050565b600082821c905092915050565b6000610eba60001984600802610e9c565b1980831691505092915050565b6000610ed38383610ea9565b9150826002028217905092915050565b610eec8261080e565b67ffffffffffffffff811115610f0557610f0461066e565b5b610f0f8254610b4e565b610f1a828285610e56565b600060209050601f831160018114610f4d5760008415610f3b578287015190505b610f458582610ec7565b865550610fad565b601f198416610f5b86610d37565b60005b82811015610f8357848901518255600182019150602085019450602081019050610f5e565b86831015610fa05784890151610f9c601f891682610ea9565b8355505b6001600288020188555050505b50505050505056fea26469706673582212202dbffdd3ab829261ebc2feab8c88ce42229588696596cf9234c2bce49516664564736f6c63430008110033",
    "linkReferences": {},
    "deployedLinkReferences": {}
}